:0404000002048D3233
:01040B0032BE
:0104130032B6
:03041B00020905CE
:0104230032A6
:01042B00329E
:010433003296
:01043B00328E
:010443003286
:01044B00327E
:010453003276
:01045B00326E
:030463000212CDB5
:01046B00325E
:030473000208C7B5
:01047B00324E
:03048300020975F6
:0305250002048647
:050486001206D980FE02
:0E05280063FF1043FF04AFFF5307FD8FFF2258
:0405360012089022F5
:0C053A00120C70AE82AF837800EEF20865
:09054600EFF2EE4F70030206C152
:08054F00120855AF82BF400005
:0505570050030206C183
:0C055C007800E22412FE08E23400FF8E5A
:0B056800828F83E0FB53037F8B0D7537
:0A0573000E007800E22411F5820862
:0C057D00E23400F583E0F508C2D575F00B
:0A05890002E50830E704B2D5F404DF
:060593008430D502F404DF
:0D059900C0E0A2D595E0F5F0D0E024B9F562
:0805A60009E5F034FFF50A78C5
:0B05AE0000E2F58208E2F583E0FD8D1D
:0905B9000B750C00C007C006120E
:0705C20012F285820F858310
:0505C9001085F011F5A2
:0A05CE00127800E22401F58208E231
:0C05D8003400F583E0FD7C007800E22494
:0C05E40002F58208E23400F583E0FB8B96
:0505F0001375140078F2
:0C05F50000E22403F58208E23400F583E4
:08060100E0FB8B157516007873
:0C06090000E22404F58208E23400F583CE
:09061500E0FB7A00C00DC00EC02C
:04061E0009C00AC045
:040622000BC00CC03D
:040626000FC010C031
:08062A0011C012C005C004C09C
:0406320013C014C01D
:0806360015C016C003C00274D8
:0A063E0061C0E07422C0E07480C0C7
:0E064800E0121ABFE58124EBF581D006D00741
:0D0656008E828F83E0FE30E7047F3180024A
:020663007F30E6
:0C0665008F821205367800E22405FE08A2
:06067100E23400FF7D00F1
:03067700BD0600BD
:0E067A005036ED2D2EF582E43FF583E0FBA314
:0D068800E0FCC007C006C005C003C004743C
:0A06950089C0E07422C0E07480C048
:0E069F00E0121ABFE58124FBF581D005D006DC
:0506AD00D0070D80C51F
:0D06B20075820D12053675820A120536128A
:0206BF000C8BA2
:0106C1002216
:0E06C20090840075F003E412072A758200127E
:0906D0000815758200120843228E
:0706D900120DBF120BFED24F
:0506E000071206F612EE
:0206E50006C24B
:0706E700120528120DCC12D0
:0806EE000FF012053A80F22220
:0E226100253032582D253032582D2530325878
:0E226F002D253032582C2531326C752C25343B
:0C227D00642C2534642C2534642C2000D3
:052289002C2535750055
:0706F600751700751800756F
:0606FD001900751A00C28D
:0407030000C201C26D
:0C0707000243F54043F10275FB8243F809
:0E071300C043F44043A908AFB95307F78FB9AC
:09072100D2EAC28FD2ABD2AF22A2
:0E072A00AF82AE83ADF0FCC3EF9417EE9400E7
:0E073800ED9400EC9400400D74609F74E39EFD
:0707460074169DE49C5003B2
:03074D000208148B
:020750007B002C
:0E075200C374A69F74909E74079DE49C501083
:0E0760000BECC313FCED13FDEE13FEEF13FFC5
:02076E0080E227
:0C0770007815EFF208EEF208EDF208EC4C
:0E077C00F290000BE4F5F0C007C006C005C007
:0B078A0004C00312115285821B8583FE
:050795001C85F01DF5BC
:0C079A001ED003D004D005D006D0077894
:0C07A60015EFF208EEF208EDF208ECF29C
:0E07B2009021D7E4F5F0C003121152AC82ADD5
:0C07C00083AEF0FF7804741BF20874B7DD
:0E07CC00F208E4F208F28C828D838EF0EF12B8
:0D07DA000B5DAC82AD83AEF0FFD003EC25CB
:0807E7001BFCED351CFDEE3595
:0607EF001DFEEF351EFFA8
:0B07F500ED54FE7006EE7003EF601084
:0E0800000BEFC313FFEE13FEED13FDEC13FC24
:02080E0080E583
:040810008BFC8CFAD7
:0108140022C1
:09081500AF827E00BF0102800FDA
:05081E00BF0202800E84
:05082300BF0302800D7F
:05082800BF0410800C6C
:04082D007E38800A87
:040831007E188006A7
:040835007E3080028F
:020839007E102F
:08083B00744755FB4EF5FB224A
:0A084300AF82BF020543FB048007EB
:07084D00AFFB5307FB8FFB1B
:010854002281
:09085500E518C3951714F5822281
:08085E00AE82AF837802E2FDD7
:0A086600ED6026E5172450FBE43492
:0C087000F0FC8E828F83E0FAA3AE82AF12
:0C087C00838B828C83EAF0E51704FC8C6F
:07088800171D439A0880D7F9
:01088F002246
:0A089000AF82E5172450F582E4342E
:0A089A00F0F583EFF0E51704FF8F7F
:0508A40017439A082231
:0808A900E51AC39519F582223E
:0808B100E5192450F582E4343E
:0A08B900F1F583E0FFE51904FE8E5F
:0408C300198F8222E5
:0E08C700C0E0C082C083C007C0D075D000E57D
:0608D50017B5180280189F
:0A08DB00C2EAE5182450F582E43467
:0A08E500F0F583E0F5F9E51804FFD3
:0408EF008F188007D7
:0708F300AF9A5307F78F9A3B
:0B08FA00D0D0D007D083D082D0E032F5
:0E090500C0E0C082C083C007C006C005C004A9
:0E091300C003C0D075D000C28FE5F8FF5418A5
:0409210060028031BF
:0A092500AD197E00AB1A7C00EDC393
:0A092F009BFDEE9CFE1DBDFF011EA6
:0A093900ED6016E51A2450F582E483
:0A09430034F1F583E5F9F0E51A043C
:05094D00FE8E1A80106F
:04095200D202800C41
:06095600EF30E402D201C3
:06095C00EF30E302D200BF
:0E096200D0D0D003D004D005D006D007D0836B
:05097000D082D0E0324E
:0604E600751F00C203C2F5
:0304EC0004C20542
:0C097500C024C0E0C0F0C082C083C007F6
:0E098100C006C005C004C003C002C001C00013
:0E098F00C0D0E4F5D0F59BE5E930E418740320
:0B099D00B51F0875821E120A34800B83
:0B09A8007402B51F0675821F120A348E
:0B09B300E5E930E506758220120A34E9
:0A09BE003003427403B51F02804F9E
:0C09C8007402B51F2390DF3BE0FFBF0D61
:0E09D4001B90DF3CE0FF20E33A90DF12E0FFD3
:0809E200530707BF070280065E
:0609EA0074F625A450275D
:0A09F00090DF3BE0FFBF0D02800323
:0309FA0075E104A0
:0609FD00758221120A348C
:0A0A0300E5E930E705D20575E97F4B
:0A0A0D00E5E930E605D20475E9BF03
:0E0A1700D0D0D000D001D002D003D004D00542
:0D0A2500D006D007D083D082D0F0D0E0D032
:020A320024326C
:0C0A3400AF8290DF3BE0FEBE1202801E8D
:0A0A400090DF3BE0FEBE01028014CF
:0E0A4A0090DF3BE0FE600D90DF3BE0FEBE154E
:030A580002800316
:030A5B0075E10042
:0C0A5E0075D682AED15306FD8ED1751FF7
:0E0A6A000290DF127407F08F82120CCB75E938
:080A7800CFAF1FBF0202800591
:050A8000BF0310800817
:080A850043D60275E102800670
:060A8D0043D60275E103EF
:030A9300C2032279
:060A9600D203439B032282
:0E0A9C001219BF90DF147414F090DF1374056C
:0E0AAA00F090DF127407F0439A017591F0D2BC
:080AB800AF90F3D97413F02292
:0C0AC000AE82AF837803E2601290DF1278
:0C0ACC00E4F075A2007803E2F5A475A325
:030AD80000800695
:060ADB0090DF127407F029
:0E0AE1007CD97D0074DF2DFC90F3D3ECF07C0B
:0E0AEF00D990F3D4ECF08F0590F3D5EDF09094
:0D0AFD00F3D6EEF090DF02E0FF0F0F0F9038
:0B0B0A00F3D8EFF090F3D77480F09068
:090B1500F3DA7410F0751F0222DE
:0E0B1E00AE82AF838F0590F3D3EDF090F3D449
:0E0B2C00EEF07ED97F0074DF2FFE90F3D5EE41
:0E0B3A00F07ED990F3D6EEF090DF02E0FF0FD0
:0C0B480090F3D8EFF090F3D77420F090F9
:090B5400F3DA7440F0751F03226E
:0C0B5D00AF82AE83ADF0FC7808EFF20828
:0E0B6900EEF208EDF208ECF27A007B007E005E
:040B77007F007D205E
:0A0B7B00780BE2235401FC24FF92E2
:0A0B8500067808E225E0F208E233EA
:0E0B8F00F208E233F208E233F2EA2AFAEB331C
:0C0B9D00FBEE33FEEF33FF300603430293
:010BA900014A
:0C0BAA007804C3E2F5F0EA95F008E2F5EB
:0E0BB600F0EB95F008E2F5F0EE95F008E2F5B0
:0C0BC400F0EF95F040227804D3E29AF4A0
:0E0BD000B3FAB308E29BF4B3FBB308E29EF461
:0C0BDE00B3FEB308E29FF4FF7808E24485
:020BEA0001F216
:0C0BEC00DD8D7808E2F58208E2F5830850
:060BF800E2F5F008E22224
:0704EF00752500752600755C
:0604F6002700752800C27A
:0104FC0007F8
:0E0BFE0012223290DF027413F090228EE493E4
:0E0C0C00FC74019374029374039390DF06EC62
:080C1A00F0120A9C120A962256
:0B0C2200120D82E582540304F58222CB
:0A0C2D00E528C3952714540FF58243
:010C3700229A
:0A0C3800E527C39528540FF582222A
:0C0C4200120C2DE582700590000080115E
:0A0C4E00E52775F014A42492FE744B
:070C5800F235F08E82F583F6
:010C5F002272
:0A0C6000740FB52705752700800208
:020C6A0005275C
:040C6C00120A9622B0
:0A0C7000E526B52505900000801070
:0A0C7A00E52575F016A42450FEE4F1
:060C840034F28E82F583BC
:010C8A002247
:0A0C8B007402B525057525008002EE
:020C9500052533
:010C9700223A
:070C9800E527B528028015D5
:0A0C9F00E52875F014A42492F582F4
:0B0CA90074F235F0F583120B1E80166C
:0A0CB400E52675F016A42450F58221
:0A0CBE00E434F2F5837803E4F21247
:020CC8000AC060
:010CCA002207
:0B0CCB00AF82BF2106120C98020D81C1
:0A0CD600BF1E33740FB52805752802
:030CE0000080028F
:020CE3000528E2
:0A0CE500E52675F016A42450FDE486
:0C0CEF0034F2FEC006C005120C22AC82DC
:0C0CFB00D005D0067803ECF28D828E83C9
:050D0700120AC0807516
:0A0D0C00BF1F6CE52675F016A42445
:070D160050FDE434F2FE2061
:0C0D1D00073BC006C005121A5ED005D0CE
:0A0D290006402EE527B52802801AC7
:0E0D3300C006C005120C22AC82D005D0067896
:0C0D410003ECF28D828E83120AC0800B3E
:0B0D4D007803E4F28D828E83120AC04E
:020D58008027F2
:0C0D5A008D828E83E060157402B52604C3
:040D66007E00800487
:040D6A00E52604FE78
:060D6E00EEB52502800233
:020D74008E26C9
:050D7600120C9880063C
:060D7B00BF2003120C98DA
:010D8100224F
:04228E0080000000CC
:0604BC00E478FFF6D8FD14
:080D8200E5B4540C600280F896
:0C0D8A0085BC82743055B44407F5B422D7
:0A0D9600AF82780CE27003EF6009F1
:090DA000780CE2B40308BF8005E1
:050DA900780C74AAF2B1
:0B0DAE008FBC780CE2F5BC120D821225
:060DB9000D82120D8222E2
:08049A007909E94400601B7AB6
:0504A2000190233178F8
:0304A700FF75934B
:0A04AA00F3E493F2A308B800020582
:0804B40093D9F4DAF27593FF0D
:0504FD00780D7480F28F
:070DBF00120DE6120DD01227
:060DC60013131213522268
:040DCC00120E712270
:070DD000AFBE5307FB8FBE0D
:0E0DD700E5BE30E6FB75C68043BE0475C7005E
:010DE50022EB
:0A0DE60075FF0075A00675F799224D
:0C0DF0001212F2AC82AD83AEF0FF780D61
:0E0DFC00D3E29CF4FC24E65044E5FFC454010D
:0C0E0A00FF24FF9209400943FF1075828D
:040E16000212225949
:0E0E1A00AFF75307EF8FF7AFFF5307EF8FFFD0
:0C0E2800758201122259A2A4920843F71F
:070E34001030090343FF1019
:0C0E3B001212F2AC82AD83AEF0FF780D15
:020E4700ECF2CB
:010E49002286
:0E0E4A00C2AF75D69F75820A12225975FF003D
:0E0E580075FE0075FD0075F50075F40075F36C
:0B0E66000090006412131E0200062220
:0E0E7100E5FF20E20C75820A12225930A2031E
:030E7F00120E4A06
:010E8200224D
:060E8300120DF0A208228E
:030E8900A2A322FF
:080E8C00AFFF5307FE8FFF22A8
:060E9400D2A043FF012281
:06050200752900C20AC2C7
:060508000B780EE4F2780E
:09050E000FE4F2781074FFF27E94
:04051700237F0F78B7
:06051B0011EEF208EFF200
:0C0E9A007831740AF275820112195B783D
:0B0EA600327440F275820412198D783E
:0B0EB100317440F275820412195B7866
:050EBC001074FFF2229A
:0E0EC10090F3F3E0FF53077FBF215590F3F746
:0E0ECF00E0FEA3E0FF4E6006BE0147BF0044F8
:0A0EDD0090F3F4E0FFBF2002800A4A
:050EE700BF210280168E
:050EEC00BF223280224C
:070EF100782F74FFF2087472
:0A0EF800F3F2900007121926801F84
:070F0200782D74FFF2087462
:0A0F0900F3F2900007121905800EA4
:0C0F130090F3F5E0FEA3E0780EEEF21281
:020F1F00194770
:010F210022AD
:010F220022AC
:010F230022AB
:0C0F24007811E2F58208E2F58312048BDC
:0E0F300090F3FFE0FCA3E0FDA3E0FEA3E0FFD2
:0D0F3E00BC4D1DBD011ABE0017BF001420E0
:050F4B000B11D20B1296
:0E0F500012F2AC82AD83AEF0FF90F3D2ECF063
:010F5E002270
:0A0F5F0090F406E0FFBF10028005C9
:050F6900758200801AF2
:0E0F6E0090DE0E7404F090DE14E0FF30E00917
:090F7C0090DE16E0FFF58280030F
:030F850075820072
:010F88002246
:0E0F890090DE0E7404F090DE28E0FF90DE167D
:0C0F9700E0FE700890DE14E054FEFEF056
:050FA300D20E8F822236
:0A0FA800AE82AF8378137927E2F3DD
:0B0FB2007828EEF208EFF275820412BE
:0E0FBD00135A90DE16E0FF700890DE14E05428
:030FCB00FEFFF036
:010FCE002200
:0E0FCF0090DE0E7404F090DE11E0FF4401F09D
:080FDD007440B52903D3800123
:010FE500C348
:050FE600920C920A7557
:050FEB002900D20E22D6
:070FF0001213D2300B19129D
:0E0FF70012F2AC82AD83AEF090F3D2E0FFECCC
:0A100500C39FFC24B95003120E4AE9
:0A100F0090F406E0FFBF100280021B
:021019008079DC
:0B101B0090DE0E7404F0E529700B302D
:0A1026000A0B90DE11E0FF20E10349
:03103000120FCFCD
:0A10330090DE0E7401F0780F7910C2
:09103D00E2F5F0E3B5F002804E8B
:0E10460090DE11E0FF20E04690DE2274A1F063
:0E1054007420F0E4F090DE22F090DE22F090A6
:0C106200DE22F090DE227402F0E4F07850
:0C106E000F90DE22E2F090DE22E4F09011
:0C107A00DE11E04401F0780FE2FF5307A4
:0A10860083780FEFF2780FE2FF7895
:0410900010F2D20E7A
:011094002239
:0A10950090F406E0FFBF1002800592
:05109F007582008027AE
:0E10A40090DE0E7404F090DE11E0FF30E112D9
:0910B200EF30E0057582008010AA
:0910BB007440C39529F5828007F9
:0710C4007480C39529F58239
:0110CB002202
:0410CC00AE82AF83BE
:0A10D0007814E260517440C39529C2
:0A10DA00FD7814C3E29D5004781461
:0210E400E2FD2B
:0A10E600782AEDF2782BEEF208EF05
:0E10F000F2758204C007C006C00512138FD02F
:0C10FE0005D006D007ED2EFEE43FFF7881
:09110A0014E2C39DF2ED2529F564
:0A111300297440B529B7C007C006D3
:09111D00120FCFD006D00780AA02
:0111260022A6
:0B112700E58290DE28F005297440B539
:051132002903120FCF9C
:011137002295
:06113800780EE2F58222B0
:0A113E00AF82780FE2547C4F780F67
:02114800F22291
:08114A00AF82780FE24FF222A0
:0E2292001201000202000020FB1F00220000CB
:0422A0000102030133
:0E22A40009024300020100C0320904000001DB
:0E22B20002020100052400200104240202059E
:0E22C000240600010524010001070581030A20
:0E22CE00000109040100020A000000070504D7
:0B22DC000240000007058402400000E3
:0122E70004F2
:0422E80004030904DE
:0E22EC00260350006F006C006F006C00750040
:0E22FA00200043006F00720070006F00720041
:0A2308006100740069006F006E00B0
:0C2312000C0357006900780065006C00A7
:02231E00E822B3
:02232000EC22AD
:02232200122384
:02232400E603CE
:0723310080250000000008F8
:0C115200AF82AE83ADF0FC7819EFF2081C
:0C115E00EEF208EDF208ECF27919E3FF64
:0C116A007E1574022EF9E38FF0A4FFAD97
:0A117600F0781FEFF208EDF279198E
:0C118000E3FF7915E38FF0A4FFADF078D9
:0A118C001DEFF208EDF27820E2FFFB
:0A1196007E1974032EF9E3FE7915AB
:0A11A000E38EF0A42F7820F27820EF
:0B11AA00E2FF7E1974022EF9E3FE74D0
:0A11B50016F9E38EF0A42F7820F263
:0A11BF00781FE2FE08E2FF7D1974BC
:0C11C900022DF9E3FD7915E38DF0A4ABD5
:0C11D500F02EFEEB3FFF781FEEF208EF5B
:0A11E100F2781FE2FE08E2FF741A24
:0C11EB00F9E3FD7416F9E38DF0A4ABF0FD
:0C11F7002EFEEB3FFF781FEEF208EFF237
:0A1203007F1974032FF9741AF8E242
:0C120D00FF7E1574022EF8E28FF0A4F3AF
:09121900741AF9741AF8E2FF7866
:0C12220015E28FF0A4ADF0F309EDF37FAE
:0A122E001574032FF97819E2FF7E12
:0B1238001574032EF8E28FF0A4F3748D
:0712430016F97819E2FF74AF
:0C124A0016F8E28FF0A4ADF0F309EDF30C
:091256007915E4F37919E4F37849
:07125F001DE2F53008E2F585
:081266003108E2F53208E2F55F
:0A126E00337819E2FA08E2FB08E207
:0A127800FE08E2FFEA2530F530EB36
:061282003531F531EE35B7
:0512880032F532EF35E4
:04128D0033F533788A
:061291001DE530F208E546
:0812970031F208E532F208E52E
:0A129F0033F2781DE208E208E208CD
:0C12A900E27815E2FC08E2FD08E2FE0815
:0A12B500E2FFEC2530FCED3531FDC1
:0A12BF00EE3532FEEF35338C828DE0
:0412C900838EF022FE
:0C12CD00C0E0C000C0D075D0007821E265
:0E12D9002401F208E23400F208E23400F208C8
:0B12E700E23400F2D0D0D000D0E032A2
:0C12F200A2BCE433FFC2BC7821E2FB0880
:0E12FE00E2FC08E2FD08E2FEEF24FF92BC8B4A
:07130C00828C838DF0EE22BC
:0B13130075EDBBD2BC75EBFAD2AF2227
:04131E00AE82AF8369
:091322008E048F051EBEFF011FA1
:0E132B00EC4D60227582FAC007C006122259EE
:0E1339007582FA1222597582FA1222597582B3
:0A134700F9122259D006D00780D118
:011351002279
:0804C2007850E84400600A795B
:0304CA0000759327
:0604CD00F0E4F309D8FC85
:0804D30078AFE84403600C79E6
:0B04DB000490F000E4F0A3D8FCD9FA74
:0713520075D2D375D3F3221D
:04052100C20DC20E37
:011359002271
:0E135A00AF82E4CF25E0CF33FE74202FFF7466
:0A136800DE3EFE7827E2FD7828E261
:04137200FB08E2FC96
:0E137600ED60131D8F828E83E0FA8B828C83D4
:08138400F0A3AB82AC8380EA08
:03138C00D20E225C
:0E138F00AF82E4CF25E0CF33FE74202FFF7431
:0A139D00DE3EFE782AE2FD782BE226
:0413A700FB08E2FC61
:0E13AB00ED60141D8B828C83E0FAA3AB82AC44
:0913B900838F828E83EAF080E943
:0113C2002208
:0C13C300C20D90DE017401F090DE0B748E
:0313CF0007F02202
:0D13D200120E834014AFBE53077F8FBE1272
:0813DF000E8C90F406E4F0C24C
:0413E7000D0215F7E7
:0E13EB0090F406E0FF7013120E9443BE8000D3
:0C13F90000000090F4067402F01213C310
:0E14050090DE06E0FF90DE02E0FEEF30E00237
:02141300D20DF8
:0E141500EF30E21690F4067404F090F407E451
:0C142300F0C007C0061213C3D006D007AB
:06142F00EF30E102C20DE6
:07143500EE20E0030215F7B1
:0C143C0090DE0EE4F090DE11E0FFD20E16
:0E144800EF30E40B90DE117480F090F407E4B6
:01145600F0A5
:0D145700EF30E20990DE11E4F090F407F0B0
:07146400EF20E00302158DEB
:0A146B0090F407E0FEBE01028003CA
:031475000215134A
:0E14780090DE16E0FE90F3FBE0FCA3E0FD8E9C
:0C148600027B00C3EC9AED9B50028C0628
:071492007827EEF2782579BE
:0C14990028E2F308E209F3758200C007A6
:0C14A500C00612135AD006D0077825E2CA
:0E14B1002EF208E23400F290F3FBE0FCA3E020
:0E14BF00FD7B0090F3FBECC39EF0ED9BA3F0D1
:0E14CD0090F3FBE0FDA3E0FE4D600990DE1100
:0614DB007440F002158DC3
:0E14E10090F3F3E054606007C007120F24D0B0
:0114EF0007F5
:0D14F00090DE0EE4F090F407E0FE7009902D
:0814FD00DE117468F002158D88
:0E15050090DE117448F090F407E4F002158DAA
:0B15130090DE16E0FEBE086C78287425
:07151E00F3F20874F3F27808
:0C152500277408F2758200C00712135AE8
:0E153100D00790F407E4F090F3F3E0546070FC
:0A153F0009C0071215F8D007800755
:07154900C007120EC1D0071C
:0D15500090DE0EE4F090F407E0FE700890CD
:07155D00DE117460F080292B
:0E156400BE012690F3FBE0FDA3E0FE4D600803
:0815720090DE117440F08013BB
:0D157A0090DE11744AF090F407E4F0800652
:0615870090DE117440F03B
:0D158D00EF20E16690F407E0FEBE025E90E4
:0E159A00F3FBE0FDA3E0FEC3ED9420EE940011
:0B15A80050097F0A90F407E4F0800473
:0415B3007F027D2016
:0715B700782AEDF278257996
:0C15BE002BE2F308E209F3758200C0077D
:0E15CA00C00512138FD005D00790DE11EFF090
:0B15D8007825E22DF208E23400F290CA
:0E15E300F3FBE0FEA3E0FF7C0090F3FBEEC301
:0615F1009DF0EF9CA3F049
:0115F70022D1
:0A15F80090F3FDE4F090F3FEF09094
:0B160200F3F4E0FF24F350030218ADE6
:07160D00EF2F2F901614735C
:071614000217D7021899022A
:06161B0018AD021899024F
:0616210018AD02171202D1
:06162700163B0218AD02A3
:06162D00177002173302E2
:0616330017950218AD023C
:02163900189EF9
:0E163B0090F3F5E0FEA3E0FFFC7D00BC01058E
:05164900BD000280134A
:08164E00BC0205BD0002802072
:08165600BC0305BD0002803B4E
:03165E000216DD94
:0716610078257492F2087471
:0C16680022F290F3FB7412F0A3E4F002F5
:0216740016EA74
:06167600EE60030218AD56
:07167C00782574A4F2087444
:0C16830022F29022A6E493FCA3E493FD65
:0A168F0090F3FBECF0A3EDF08051A6
:0E1699008E047D009022E7E493FB7A00C3EC00
:0816A7009BED9A40030218AD0F
:0C16AF00E4CE25E0CE33FFEE241EF582D1
:0C16BB00EF3423F583E493FEA3E493FFD7
:0C16C7007825EEF208EFF28E828F83E0AF
:0A16D300FE90F3FBF0A3E4F0800D9D
:0B16DD00120F2290F407E0FF700302E0
:0216E80018AD3B
:0E16EA0090F3F9E0FEA3E0FF90F3FBE0FCA319
:0E16F800E0FDC3EE9CEF9D500890F3FBEEF07A
:03170600A3EFF05E
:0917090090F4077402F00218AD1F
:0E17120090F3F5E0FEA3E0FF90DE00EEF0EEB7
:0617200060047F08800256
:021726007F043E
:0917280090F406EFF012194702DB
:0217310018ADF1
:0E17330090F3F5E0FEA3E0FFBE0005BF00024C
:0217410080081E
:08174300BE0121BF001E801150
:0E174B0090F406E0FF24F7501690F4067408A0
:03175900F0800E0F
:0B175C0090F4067410F0120E9A800347
:031767000218ADB8
:06176A001219470218AD40
:0C17700090F406E0FFBF10047F0180022F
:02177C007F00EC
:08177E0090F3FDEFF0782D74EB
:0A178600FDF20874F3F29000011266
:0517900019050218AD6F
:0817950090F406E0FFBF100014
:05179D0050030218AD2D
:0B17A20090F3F7E0FEA3E0FF7CA47DC5
:0C17AD00228C828D83A3A3A3A3E493FDF0
:0C17B9007C00C3EE9DEF9C40030218ADC5
:0717C500782D74FDF2087499
:0917CC00F3F2900001121905026C
:0217D50018AD4D
:0E17D70090F3F3E0541FFE7F00BE0005BF003C
:0317E5000280146B
:0817E800BE0105BF0002802EC6
:0917F000BE0206BF0003021869E5
:0317F9000218973C
:0917FC00120E8950047F018002E5
:021805007F0062
:0818070090F3FDEFF0782D7461
:0A180F00FDF20874F3F290000212DB
:0518190019050218ADE5
:08181E0090F406E0FFBF10008A
:0E182600500E90F3F7E0FEA3E0FF4E600302C9
:0218340018ADED
:0B18360090F3F7E0FEA3E0FF7CA47D30
:0C184100228C828D83A3A3A3A3E493FD5B
:0B184D007C00C3EE9DEF9C4002805524
:07185800782D74FDF2087405
:0A185F00F3F2900002121905804414
:0E18690090F3F5E0FEA3E0FFEE540F60028066
:01187700026E
:021878008033BB
:08187A0090F406E0FFBF10002E
:041882005002802769
:07188600782D74FDF20874D7
:0A188D00F3F2900002121905801614
:021897008014BB
:05189900121947800F49
:07189E00782D74FDF20874BF
:0818A500F3F290000212190594
:0118AD002218
:0318AE00A20D2266
:0C18B100AF8CA2BD920FC2BD438C10AEE4
:0618BD008C5306FE8E8C28
:0E18C300758900C2C5D2BDAEBE74FC5E440184
:0E18D100FE8EBE000000E5BE54036007D290FC
:0518DF00438701C290E7
:0918E400C2BDE58930E702C20D26
:0C18ED00300D09C007120E89D00750CA48
:0C18F900E5BE30E6FB8F8CA20F92BD22F2
:0E190500AE82AF8390F4077402F090F3FBEE15
:0C191300F0A3EFF0782DE2FE08E2FF7870
:07191F0025EEF208EFF222B1
:0E192600AE82AF8390F4077401F090F3FBEEF5
:0C193400F0A3EFF0782FE2FE08E2FF784D
:0719400025EEF208EFF22290
:0E19470090F4077401F090F3FBE4F0A3F0229B
:0619550090F407E4F0220B
:0C195B00E58290DE0EF07831E2FE7F00A5
:0E19670074072EFEE43FFFC423CEC423541F9A
:0C1975006ECE541FCE6ECE30E40244E073
:0C19810090DE10EEF090DE127401F022F7
:0C198D00E58290DE0EF07832E2FE7F0072
:0E19990074072EFEE43FFFC423CEC423541F68
:0C19A7006ECE541FCE6ECE30E40244E041
:0C19B30090DE13EEF090DE157401F022BF
:0123380000A4
:0123390000A3
:0D19BF0090DF2E74FEF090DF097464F0904C
:0E19CC00DF0A7425F090DF0BE4F090DF0F745B
:0E19DA0043F090DF107487F090DF07740AF07E
:0E19E80090DF08E4F090DF0C741DF090DF0D2E
:0E19F60074DEF090DF0E7473F090DF1A74B69A
:0E1A0400F090DF1B7410F090DF15741DF09051
:0E1A1200DF16741CF090DF1774C7F090DF1819
:0E1A2000E4F090DF1974B2F090DF1C74EAF06D
:0E1A2E0090DF1D740AF090DF1EE4F090DF1FC1
:0E1A3C007411F090DF237488F090DF24743171
:0E1A4A00F090DF257409F090DF037404F09033
:061A5800DF047445F022DA
:0A1A5E0090DF39E023540124FF2239
:0B1A680090DF39E0FF747F5FF5822201
:0E1A730090DF3AE0FFC2D575F002EF30E704D5
:041A8100B2D5F404E2
:061A85008430D502F404D8
:051A8B0024B9F58222E0
:02048B00E47318
:061A9000C02F85812F121A
:051A96000536D02F22EF
:0C1A9B00AD82AE83AFF07840E4F208F2B8
:0C1AA70008F27843EDF208EEF208EFF2CE
:071AB30078337946E2F3905D
:051ABA001A90021BAFB1
:061ABF00C02F85812FE518
:071AC5002F24FB7846F278A4
:0A1ACC0040E4F208F208F2E52F24CE
:0C1AD600FBF87943E6F30809E6F3080981
:091AE200E6F3901A90121BAFD03C
:021AEB002F22A8
:0C1AED007836E2C0E008E2C0E008E2C089
:0A1AF900E0740CC0E0741BC0E0783C
:091B030034E2C0E008E2C0E02277
:0C1B0C00158115811581783EE22401F25C
:061B180008E23400F22295
:0E1B1E00AF8274302FFF24C6500A74072FFFC9
:061B2C0030100343072006
:051B32008F82021AED94
:0E1B3700E582FFC4540FF582C007121B1ED0BA
:091B450007740F5FF582021B1EFC
:0A1B4E00AF827839E2F53008E2F5C5
:081B58003108E2F53208E2F564
:071B600033783DE2FA7E201C
:0C1B6700EA2AFAE533235401FD8A044207
:081B7300048C02E5302530F579
:051B7B0030E53133F5F7
:051B800031E53233F5F0
:051B850032E53333F5E9
:0B1B8A0033C3EA9F4007EAC39FFA4301
:021B950030011D
:091B9700DECE7839E530F208E5F4
:081BA00031F208E532F208E51C
:071BA80033F2783DEAF2225E
:0C1BAF00AE82AF837834EEF208EFF278DB
:0A1BBB0040E2FD08E2FE08E2FF78B8
:0A1BC50036EDF208EEF208EFF278B8
:051BCF003EE4F208F203
:0C1BD4007843E2FD08E2FE08E2FF8D828B
:0C1BE0008E838FF0122216FC78437401F3
:0E1BEC002DF2E43E08F208EFF2ECFF70030267
:021BFA0021F4D4
:051BFC00BF250280037B
:031C01000221ECD1
:051C0400C211C212C272
:041C090013C214C22C
:041C0D0015C216C224
:041C110017C2187866
:0A1C150047E4F27848E4F27CFF781F
:091C1F0043E2FA08E2FB08E2FED0
:0E1C28008A828B838EF0122216FFA3AA82AB53
:0C1C3600837843EAF208EBF208EEF2BFFC
:091C420025078F82121AED80893A
:091C4B008F2A74D0252A5037E5D8
:0C1C54002A24C64031BCFF22C002C0039D
:0C1C6000C0067848E275F00AA42F24D0DA
:0A1C6C007848F2D006D003D00278C9
:081C760048E270AED21280AA10
:0C1C7E00EC75F00AA4FD2F24D0FC809E21
:0A1C8A00BF2E07BCFF987C00809479
:091C94008F2A749F252A500DE5EA
:0A1C9D002A248540075307DFD21008
:021CA7008002B9
:021CA900C21067
:051CAB00BF2002806D66
:051CB000BF2B02806360
:051CB500BF2D02805963
:051CBA00BF420280633F
:051CBF00BF4302806834
:061CC400BF4403021ECF25
:061CCA00BF4603021EEDFF
:061CD000BF4803021C28BE
:061CD600BF4903021ECF0E
:061CDC00BF4A03021C28B0
:051CE200BF4C02804030
:061CE700BF4F03021ED8EE
:061CED00BF5003021E5867
:051CF300BF53028060F8
:061CF800BF5403021C288A
:061CFE00BF5503021EDFCA
:061D0400BF5803021EE6B9
:061D0A00BF5A03021C2871
:031D1000021EF1BF
:051D1300D211021C28A2
:051D1800D213021C289B
:051D1D00D214021C2895
:051D2200D216021C288E
:051D2700D217021C2888
:091D2C0030160E7846E214FE7830
:081D350046F28E0187078013BE
:0A1D3D007846E224FEFE7846F28E9E
:091D4700018703098706198B07C7
:081D50008F82121AED021EFC45
:0A1D58007846E224FDFE7846F28E84
:0C1D620001870209870309870619197818
:0C1D6E0039EAF208EBF208EEF28A828BF0
:0E1D7A00838EF0C0041221FEAB82AE83D00433
:051D8800BCFF028B040A
:0A1D8D002011377848C3E2F5F0EBAF
:0B1D970095F0502C7848E2C39BF278D6
:031DA20048E2FE16
:0C1DA5008E021E7848EEF2EA601475828F
:0E1DB10020C006C004C003121AEDD003D004F7
:041DBF00D00680E2E8
:041DC3007848EEF27C
:021DC7008C0688
:0C1DC900C0037839E2FA08E2FB08E2FCF3
:0E1DD5008A828B838CF0122216FAFFD003EA6A
:0E1DE300603C8E041EC3E464808CF063F080CC
:0D1DF10095F0502CC0038F82C006C0031275
:0C1DFE001AEDD003D0067839E2FA08E2B2
:091E0A00FB08E2FC0ABA00010B1E
:0C1E13007839EAF208EBF208ECF2D00398
:021E1F0080A899
:061E2100201103021EFC6B
:0C1E27007848C3E2F5F0EB95F0400302B0
:021E33001EFC93
:0A1E35007848E2C39BF27848E2FE11
:0B1E3F008E041E7848EEF2EC700302E7
:021E4A001EF880
:0C1E4C00758220C006121AEDD00680E757
:0A1E58007846E224FDFC7846F28C87
:0C1E620001870209870409870519197817
:0A1E6E0039EAF208ECF208EDF27810
:061E78003BE2FFBF800009
:061E7E0040047F438014C4
:031E8400BF60003C
:061E870040047F50800BB7
:031E8D00BF400053
:061E900040047F498002BE
:021E96007F5873
:0E1E98008F82C007121AED75823A121AED758C
:0E1EA6008230121AED758278121AEDD007BF45
:041EB4004902800D52
:051EB800BF500280088C
:081EBD00783AE2F582121B37AE
:0A1EC5007839E2F582121B37802DF8
:091ECF00D2157847740AF2802450
:071ED80078477408F2801D39
:071EDF007847740AF2801637
:071EE60078477410F2800F31
:041EED00D218800B7C
:071EF1008F82121AED80043C
:041EF8007848EEF246
:0A1EFC003018737846E224FCFE78EB
:081F060046F28E01872B0987CA
:061F0E002C09872D098754
:071F14002E1919197839E5B7
:081F1B002BF208E52CF208E5A9
:071F23002DF208E52EF27813
:061F2A00397426F2087470
:061F300023F2087480F2A8
:081F36007839E2F52B08E2F511
:081F3E002C08E2F52D740125C9
:071F46002BFAE4352CFCAE80
:0A1F4D002D7839EAF208ECF208EEF4
:081F5700F2852B82852C8385A5
:0A1F5F002DF0122216FEFF7003029F
:021F69001BD487
:071F6B008F82121AED80C401
:081F72007847E27003021BD462
:081F7A007F4F30164CC00778C0
:0A1F820046E214FC7846F28C01E7F9
:0C1F8C00FA3395E0FCFDFE7839EAF2081B
:0C1F9800ECF208EDF208EEF2D007301574
:041FA40003022046CE
:0C1FA800C0077839E2FA08E208E208E21B
:0C1FB4007C007D007E007839EAF208EC29
:0B1FC000F208EDF208EEF2D007807B83
:0A1FCB0030172CC0077846E224FC12
:0C1FD500FD7846F28D018702098704099F
:0C1FE10087050987061919197839EAF2FA
:0D1FED0008ECF208EDF208EEF2D007804C8F
:0A1FFA00C0077846E224FEFD784699
:0E200400F28D01870409870519EDFA3395E086
:0C201200FDFE7839ECF208EAF208EDF26D
:0B201E0008EEF2D007201520C0077864
:0C20290039E2FA08E2FC08E208E27D005F
:0C2035007E007839EAF208ECF208EDF2C7
:0520410008EEF2D007DB
:0A20460030152E7839E2FA08E2FCAA
:0E20500008E2FD08E2FE30E71CC3E49AFAE461
:0C205E009CFCE49DFDE49EFE7839EAF253
:0B206A0008ECF208EDF208EEF2800234
:02207500C21592
:08207700D2198F017849E4F24F
:0A207F00783DE4F27847E2F582C0F4
:0A20890001121B4ED00120190E7841
:0C2093003DE2C4FDE3FC4DF31989078019
:01209F00053B
:0520A000783DE2FDF3B4
:0A20A5007849E22401F27849E2FBD9
:0A20AF00B2197839E2FA08E2FC08E1
:0E20B900E2FD08E2FEEA4C4D4E70BB8907784E
:0920C70049E2FB7848E27005785B
:0420D000487401F25D
:0A20D40020122C201129EB04FE78E5
:0320DE0048E2FDD8
:0E20E100C3EE9D5019758220C007C006C005D1
:0E20EF00C003121AEDD003D005D006D0071D95
:0220FD0080E27F
:0420FF007848EDF23E
:0B21030030151575822DC007C00312B7
:0C210E001AEDD003D0077848E214F280EC
:01211A003193
:0C211B00EB602E30131575822BC007C03E
:0C21270003121AEDD003D0077848E21430
:03213300F2801621
:0B213600301413758220C007C0031294
:0B2141001AEDD003D0077848E214F23A
:07214C0020112C7848E2FE8F
:0C2153008E051E7848EEF2C3EB9D50355F
:07215F003012047D30800204
:022166007D20DA
:0E2168008D82C007C006C003121AEDD003D04E
:0521760006D00780D82F
:0C217B007848C3E2F5F0EB95F0500878CE
:0721870048E2C39BF2800A4D
:06218E007848E4F2800431
:042194007848EEF2A7
:042198008F018B0622
:0A219C008E051EED602BB21920190C
:0C21A6000B09E3C4540FFD783DF28009E2
:0921B200E3FD53050F783DEDF249
:0C21BB00783DE2F582C006C001121B1E38
:0621C700D001D00680CF1C
:0621CD00201103021BD4E7
:0421D3007848E2FE68
:0921D7008E051EED7003021BD4FD
:0C21E000758220C006121AEDD00680EBBC
:0821EC008F82121AED021BD4D0
:0A21F400783EE2F58208E2F583224E
:0B2326003C4E4F20464C4F41543E00FF
:0421FE00AA82AB8383
:082202001222166003A380F80C
:0C220A00C3E5829AF582E5839BF58322F0
:03048D0075813343
:0A049000122246E582600302048692
:0E22160020F71430F6148883A88220F507E61E
:06222400A883758300226F
:03222A00E280F758
:03222D00E4932215
:02223000E022AA
:0C2232009003E0E493FF9003E1E4937854
:08223E000CF28F82120D9622B2
:04224600758200227B
:0B224A00000000000222550000000010
:042255000000000085
:08225900E5826003D582EA2250
:00000001FF
