:0404000002048D3233
:01040B0032BE
:0104130032B6
:01041B0032AE
:0104230032A6
:01042B00329E
:010433003296
:01043B00328E
:010443003286
:01044B00327E
:010453003276
:01045B00326E
:03046300020E4B3B
:01046B00325E
:010473003256
:01047B00324E
:0304830002070F5E
:0604E6007800E4F208F2C8
:03052D000204863F
:0504860012069780FE44
:0E0530009016CBE493FC740193FD740293FECD
:0E053E00740393FFBCFF0BBDFF08BEFF05BF9B
:04054C00FF02801812
:0E055000BC011DBD001ABE0017BF0014AFF79E
:0A055E005307DF8FF7758F00800B45
:0805680043F720758F008003AA
:03057000758F3F45
:010573002265
:0E05740012160E43FF04AFFF5307FD8FFF2248
:08058200120E708582088583CA
:05058A000985F00AF5EF
:0A058F000B7800E2FA08E2FBE4FE3C
:0A059900FFE508C39AFAE5099BFB91
:0705A300E50A9EE50B9F90A5
:0A05AA0016CFE493F508740193F5F1
:0A05B40009740293F50A740393F52D
:0A05BE000B7E007F00C3EA9508EBF6
:0905C8009509EE950AEF648085A7
:0C05D1000BF063F08095F05003020696DA
:0E05DD0012093BAE82AF838E048F05EE4F7085
:0405EB00030206966B
:0C05EF0074052CFEE43DFF7802EEF208DB
:0E05FB00EFF2C005C004120E70AA82AB83D0CE
:0C06090004D0057800EAF208EBF28C82C5
:0D0615008D837410F074012CFEE43DFF9005
:0E06220003E0E4938E828F83F074022CFEE4DA
:0E0630003DFF9003E1E4938E828F83F074030C
:0E063E002CFEE43DFF9003E2E493FB8E828FDE
:0E064C0083F074042CFCE43DFD9003E3E49382
:0C065A008C828D83F07802E2FE08E2FF43
:020666007D0015
:03066800BD0600CC
:0E066B0050268D82C007C006C0051206B2AB35
:0E06790082AC83D005D006D0078E828F83EB33
:0C068700F0A3ECF0A3AE82AF830D80D591
:03069300120959F0
:010696002241
:07069700120AB8120530122F
:05069E000ED71208F761
:0706A300120574120AC512D2
:0806AA000CE912058280F22226
:0416CB00000000001B
:0416CF0064000000B3
:0906B200AF82C28D74B06FF5B681
:0D06BB00308DFDE5BB30E705900000801993
:0E06C80085BA82E5BBC4C582C4540F6582C5E5
:0B06D60082540FC5826582C582F58347
:0106E10022F6
:0906E200AF82C28D74B06FF5B651
:0E06EB00308DFDAEBAAFBB8E82EFC4C582C4A7
:0E06F900540F6582C582540FC5826582C5828A
:0507070030E30244F0A4
:03070C00F5832250
:0604EC00750C00C200C205
:0304F20001C20242
:0C070F00C022C0E0C0F0C082C083C00760
:0E071B00C006C005C004C003C002C001C0007B
:0E072900C0D0E4F5D0F59BE5E930E418740388
:0B073700B50C0875821E1207CE800B67
:0B0742007402B50C0675821F1207CE72
:0B074D00E5E930E5067582201207CEBA
:0A0758003000427403B50C02804F1C
:0C0762007402B50C2390DF3BE0FFBF0DDC
:0E076E001B90DF3CE0FF20E33A90DF12E0FF3B
:08077C00530707BF07028006C6
:0607840074F625A45027C5
:0A078A0090DF3BE0FFBF0D0280038B
:0307940075E10408
:060797007582211207CE5D
:0A079D00E5E930E705D20275E97FB7
:0A07A700E5E930E605D20175E9BF6F
:0E07B100D0D0D000D001D002D003D004D005AB
:0D07BF00D006D007D083D082D0F0D0E0D09B
:0207CC002232D7
:0C07CE00AF8290DF3BE0FEBE1202801EF6
:0A07DA0090DF3BE0FEBE0102801438
:0E07E40090DF3BE0FE600D90DF3BE0FEBE15B7
:0307F2000280037F
:0307F50075E100AB
:0C07F80075D682AED15306FD8ED1750C73
:0E0804000290DF127407F08F821209C475E9AA
:08081200CFAF0CBF020280050C
:05081A00BF031080087F
:08081F0043D60275E1028006D8
:0608270043D60275E10357
:03082D00C20022E4
:06083000D200439B0322ED
:0E08360012153D90DF147414F090DF1374055A
:0E084400F090DF127407F0439A017591F0D224
:08085200AF90F1AB7413F0222A
:0C085A00AE82AF837804E2601290DF12DF
:0C086600E4F075A2007804E2F5A475A38C
:03087200008006FD
:0608750090DF127407F091
:0E087B007CD97D0074DF2DFC90F1A5ECF07CA3
:0E088900D990F1A6ECF08F0590F1A7EDF0905C
:0D089700F1A8EEF090DF02E0FF0F0F0F90D0
:0B08A400F1AAEFF090F1A97480F09031
:0908AF00F1AC7410F0750C02228A
:0E08B800AE82AF838F0590F1A5EDF090F1A612
:0E08C600EEF07ED97F0074DF2FFE90F1A7EEDA
:0E08D400F07ED990F1A8EEF090DF02E0FF0F69
:0C08E20090F1AAEFF090F1A97420F090C2
:0908EE00F1AC7440F0750C03221A
:0704F500750D00750E007586
:0604FC000F00751000C2A4
:0105020003F5
:0E08F70012169C90DF027413F09016D3E49357
:0E090500FC74019374029374039390DF06EC6C
:08091300F01208361208302230
:0B091B00120A7BE582540304F58222DF
:0A092600E510C3950F14540FF5827D
:0109300022A4
:0A093100E50FC39510540FF5822264
:0C093B00120926E5827005900000801172
:0A094700E50F75F014A42464FE749B
:07095100F035F08E82F58302
:01095800227C
:0A095900740FB50F05750F00800242
:02096300050F7E
:040965001208302222
:0A096900E50EB50D059000008010AA
:0A097300E50D75F016A42422FEE441
:06097D0034F08E82F583C8
:010983002251
:0A0984007402B50D05750D00800228
:02098E00050D55
:010990002244
:07099100E50FB5100280150F
:0A099800E51075F014A42464F58244
:0B09A20074F035F0F5831208B88016E1
:0A09AD00E50E75F016A42422F58271
:0A09B700E434F0F5837804E4F21252
:0209C100085AD2
:0109C3002211
:0B09C400AF82BF2106120991020A7ADF
:0A09CF00BF1E33740FB5100575103C
:0309D90000800299
:0209DC00051004
:0A09DE00E50E75F016A42422FDE4D6
:0C09E80034F0FEC006C00512091BAC82F2
:0C09F400D005D0067804ECF28D828E83D2
:050A000012085A807588
:0A0A0500BF1F6CE50E75F016A42467
:070A0F0022FDE434F0FE209B
:0C0A1600033BC006C0051215DCD005D063
:0A0A220006402EE50FB51002801A01
:0E0A2C00C006C00512091BAC82D005D00678AA
:0C0A3A0004ECF28D828E8312085A800BAF
:0B0A46007804E4F28D828E8312085ABF
:020A51008027FC
:0C0A53008D828E83E060157402B50E04E5
:040A5F007E00800491
:040A6300E50E04FE9A
:060A6700EEB50D02800255
:020A6D008E0EEB
:050A6F00120991800650
:060A7400BF2003120991EE
:010A7A002259
:0416D3008000000093
:0604BC00E478FFF6D8FD14
:080A7B00E5B4540C600280F8A0
:0C0A830085BC82743055B44407F5B422E1
:0A0A8F00AF827805E27003EF600902
:090A99007805E2B40308BF8005F2
:050AA200780574AAF2C2
:0B0AA7008FBC7805E2F5BC120A7B1240
:060AB2000A7B120A7B2200
:08049A007909E94400601B7AB6
:0504A2000190176B78CA
:0304A700D1759379
:0A04AA00F1E493F2A308B800020584
:0804B40093D9F4DAF27593FF0D
:0505030078067480F28F
:070AB800120ADF120AC91245
:060ABF000E91120ED02280
:040AC500120B6A2284
:070AC900AFBE5307FB8FBE17
:0E0AD000E5BE30E6FB75C68043BE0475C70068
:010ADE0022F5
:0A0ADF0075FF0075A00675F7992257
:0C0AE900120E70AC82AD83AEF0FF7806F8
:0E0AF500D3E29CF4FC24E65044E5FFC4540117
:0C0B0300FF24FF9205400943FF1075829B
:040B0F00021216C3F5
:0E0B1300AFF75307EF8FF7AFFF5307EF8FFFDA
:0C0B21007582011216C3A2A4920443F7CF
:070B2D001030050343FF1027
:0C0B3400120E70AC82AD83AEF0FF7806AC
:020B4000ECF2D5
:010B42002290
:0E0B4300C2AF75D69F75820A1216C375FF00E9
:0E0B510075FE0075FD0075F50075F40075F376
:0B0B5F0000900064120E9C02000622B1
:0E0B6A00E5FF20E20C75820A1216C330A203CA
:030B7800120B431A
:010B7B002257
:060B7C00120AE9A20422A6
:030B8200A2A32209
:080B8500AFFF5307FE8FFF22B2
:060B8D00D2A043FF01228B
:06050800751100C206C2DD
:06050E00077807E4F27813
:0905140008E4F2780974FFF27E9C
:04051D001C7F0C78BB
:060521000AEEF208EFF201
:0C0B9300781E740AF27582011214D978E1
:0B0B9F001F7440F275820412150B78E1
:0B0BAA001E7440F27582041214D9780A
:050BB5000974FFF222AB
:0E0BBA0090F1C5E0FF53077FBF215590F1C9B0
:0E0BC800E0FEA3E0FF4E6006BE0147BF004402
:0A0BD60090F1C6E0FFBF2002800A84
:050BE000BF2102801698
:050BE500BF2232802256
:070BEA00781C74D1F20874BD
:0A0BF100F1F29000071214A4801F17
:070BFB00781A74D1F20874AE
:0A0C0200F1F2900007121483800E37
:0C0C0C0090F1C7E0FEA3E07807EEF212C2
:020C180014C501
:010C1A0022B7
:010C1B0022B6
:010C1C0022B5
:0C0C1D00780AE2F58208E2F58312048BED
:0E0C290090F1D1E0FCA3E0FDA3E0FEA3E0FF0C
:0D0C3700BC4D1DBD011ABE0017BF001420EA
:050C44000711D20712A8
:0E0C49000E70AC82AD83AEF0FF90F1A4ECF023
:010C5700227A
:0A0C580090F1D8E0FFBF1002800504
:050C6200758200801AFC
:0E0C670090DE0E7404F090DE14E0FF30E00921
:090C750090DE16E0FFF582800319
:030C7E007582007C
:010C81002250
:0E0C820090DE0E7404F090DE28E0FF90DE1687
:0C0C9000E0FE700890DE14E054FEFEF060
:050C9C00D20A8F822244
:0A0CA100AE82AF83780C7914E2F301
:0B0CAB007815EEF208EFF275820412DB
:0E0CB6000ED890DE16E0FF700890DE14E054B9
:030CC400FEFFF040
:010CC700220A
:0E0CC80090DE0E7404F090DE11E0FF4401F0A7
:080CD6007440B51103D3800145
:010CDE00C352
:050CDF00920892067569
:050CE4001100D20A22FC
:070CE900120F503007191231
:0E0CF0000E70AC82AD83AEF090F1A4E0FFEC8C
:0A0CFE00C39FFC24B95003120B43FE
:0A0D080090F1D8E0FFBF1002800256
:020D12008079E6
:0B0D140090DE0E7404F0E511700B304F
:0A0D1F00060B90DE11E0FF20E10357
:030D2900120CC8E1
:0A0D2C0090DE0E7401F078087909DA
:090D3600E2F5F0E3B5F002804E95
:0E0D3F0090DE11E0FF20E04690DE2274A1F06D
:0E0D4D007420F0E4F090DE22F090DE22F090B0
:0C0D5B00DE22F090DE227402F0E4F0785A
:0C0D67000890DE22E2F090DE22E4F09022
:0C0D7300DE11E04401F07808E2FF5307B5
:0A0D7F00837808EFF27808E2FF78AD
:040D890009F2D20A8F
:010D8D002243
:0A0D8E0090F1D8E0FFBF10028005CD
:050D98007582008027B8
:0E0D9D0090DE0E7404F090DE11E0FF30E112E3
:090DAB00EF30E0057582008010B4
:090DB4007440C39511F58280071B
:070DBD007480C39511F5825B
:010DC400220C
:040DC500AE82AF83C8
:0A0DC900780DE260517440C39511EB
:0A0DD300FD780DC3E29D5004780D79
:020DDD00E2FD35
:0A0DDF007817EDF27818EEF208EF35
:0E0DE900F2758204C007C006C005120F0DD0BF
:0C0DF70005D006D007ED2EFEE43FFF788B
:090E03000DE2C39DF2ED2511F58D
:0A0E0C00117440B511B7C007C0060D
:090E1600120CC8D006D00780AA16
:010E1F0022B0
:0B0E2000E58290DE28F005117440B55B
:050E2B001103120CC8C8
:010E3000229F
:060E31007807E2F58222C1
:0A0E3700AF827808E2547C4F78087F
:020E4100F2229B
:080E4300AF827808E24FF222B1
:0E16D7001201000202000020FB1F0022000092
:0416E50001020301FA
:0E16E90009024300020100C0320904000001A2
:0E16F700020201000524002001042402020565
:0E170500240600010524010001070581030AE6
:0E171300000109040100020A0000000705049D
:0B1721000240000007058402400000A9
:01172C0004B8
:04172D0004030904A4
:0E173100260350006F006C006F006C00750006
:0E173F00200043006F00720070006F00720007
:0A174D006100740069006F006E0077
:0C1757000C0357006900780065006C006E
:021763002D1740
:0217650031173A
:02176700571712
:02176900E60395
:07176B0080250000000008CA
:0C0E4B00C0E0C000C0D075D000780EE2FE
:0E0E57002401F208E23400F208E23400F2084E
:0B0E6500E23400F2D0D0D000D0E03228
:0C0E7000A2BCE433FFC2BC780EE2FB0819
:0E0E7C00E2FC08E2FD08E2FEEF24FF92BC8BD0
:070E8A00828C838DF0EE2243
:0B0E910075EDBBD2BC75EBFAD2AF22AE
:040E9C00AE82AF83F0
:090EA0008E048F051EBEFF011F28
:0E0EA900EC4D60227582FAC007C0061216C317
:0E0EB7007582FA1216C37582FA1216C375827E
:0A0EC500F91216C3D006D00780D141
:010ECF002200
:0804C2007822E84400600A7989
:0304CA0000759327
:0604CD00F0E4F309D8FC85
:0804D30078AFE84401600C79E8
:0B04DB000290F000E4F0A3D8FCD9FA76
:070ED00075D2A575D3F122D4
:04052700C209C20A39
:010ED70022F8
:0E0ED800AF82E4CF25E0CF33FE74202FFF74ED
:0A0EE600DE3EFE7814E2FD7815E20E
:040EF000FB08E2FC1D
:0E0EF400ED60131D8F828E83E0FA8B828C835B
:080F0200F0A3AB82AC8380EA8E
:030F0A00D20A22E6
:0E0F0D00AF82E4CF25E0CF33FE74202FFF74B7
:0A0F1B00DE3EFE7817E2FD7818E2D2
:040F2500FB08E2FCE7
:0E0F2900ED60141D8B828C83E0FAA3AB82ACCA
:090F3700838F828E83EAF080E9C9
:010F4000228E
:0C0F4100C20990DE017401F090DE0B7418
:030F4D0007F02288
:0D0F5000120B7C4014AFBE53077F8FBE1202
:080F5D000B8590F1D8E4F0C20D
:040F650009021175F7
:0E0F690090F1D8E0FF7013120B8D43BE800094
:0C0F770000000090F1D87402F0120F414D
:0E0F830090DE06E0FF90DE02E0FEEF30E002BE
:020F9100D20983
:0E0F9300EF30E21690F1D87404F090F1D9E43A
:0C0FA100F0C007C006120F41D006D007B8
:060FAD00EF30E102C20971
:070FB300EE20E003021175BE
:0C0FBA0090DE0EE4F090DE11E0FFD20AA1
:0E0FC600EF30E40B90DE117480F090F1D9E46E
:010FD400F02C
:0D0FD500EF30E20990DE11E4F090F1D9F068
:070FE200EF20E00302110BF8
:0A0FE90090F1D9E0FEBE0102800382
:030FF30002109158
:0E0FF60090DE16E0FE90F1CDE0FCA3E0FD8E53
:0C100400027B00C3EC9AED9B50028C06AE
:071010007814EEF27812796A
:0C10170015E2F308E209F3758200C0073F
:0C102300C006120ED8D006D0077812E2EA
:0E102F002EF208E23400F290F1CDE0FCA3E0D6
:0E103D00FD7B0090F1CDECC39EF0ED9BA3F087
:0E104B0090F1CDE0FDA3E0FE4D600990DE11B6
:061059007440F002110BCF
:0E105F0090F1C5E054606007C007120C1DD070
:01106D00077B
:0D106E0090DE0EE4F090F1D9E0FE700990E4
:08107B00DE117468F002110B94
:0E10830090DE117448F090F1D9E4F002110BE8
:0B10910090DE16E0FEBE086C781574BF
:07109C00C5F20874F1F278BF
:0C10A300147408F2758200C007120ED809
:0E10AF00D00790F1D9E4F090F1C5E0546070E4
:0A10BD0009C007121176D007800762
:0710C700C007120BBAD007AD
:0D10CE0090DE0EE4F090F1D9E0FE70089085
:0710DB00DE117460F08029B2
:0E10E200BE012690F1CDE0FDA3E0FE4D6008BA
:0810F00090DE117440F0801342
:0D10F80090DE11744AF090F1D9E4F080060A
:0611050090DE117440F0C1
:0D110B00EF20E16690F1D9E0FEBE025E909B
:0E111800F1CDE0FDA3E0FEC3ED9420EE9400C7
:0B11260050097F0A90F1D9E4F080042A
:041131007F027D209C
:071135007817EDF278127942
:0C113C0018E2F308E209F3758200C00716
:0E114800C005120F0DD005D00790DE11EFF09C
:0B1156007812E22DF208E23400F29063
:0E116100F1CDE0FEA3E0FF7C0090F1CDEEC3E7
:06116F009DF0EF9CA3F0CF
:011175002257
:0A11760090F1CFE4F090F1D0F0907A
:0B118000F1C6E0FF24F3500302142B23
:07118B00EF2F2F901192736A
:0711920002135502141702BD
:06119900142B02141702E2
:06119F00142B0212900265
:0611A50011B902142B0237
:0611AB0012EE0212B10277
:0611B100131302142B02CF
:0211B700141C06
:0E11B90090F1C7E0FEA3E0FFFC7D00BC010545
:0511C700BD00028013D1
:0811CC00BC0205BD00028020F9
:0811D400BC0305BD0002803BD5
:0311DC0002125BA1
:0711DF00781274D7F20874C6
:0C11E60016F290F1CD7412F0A3E4F002B8
:0211F200126881
:0611F400EE600302142B63
:0711FA00781274E9F2087499
:0C12010016F29016EBE493FCA3E493FDBE
:0A120D0090F1CDECF0A3EDF080515C
:0E1217008E047D0090172CE493FB7A00C3EC4C
:081225009BED9A400302142B1B
:0C122D00E4CE25E0CE33FFEE2463F58212
:0C123900EF3417F583E493FEA3E493FF69
:0C1245007812EEF208EFF28E828F83E048
:0A125100FE90F1CDF0A3E4F0800D53
:0B125B00120C1B90F1D9E0FF700302A1
:02126600142B47
:0E12680090F1CBE0FEA3E0FF90F1CDE0FCA3FF
:0E127600E0FDC3EE9CEF9D500890F1CDEEF030
:03128400A3EFF0E5
:0912870090F1D97402F002142B5D
:0E12900090F1C7E0FEA3E0FF90DE00EEF0EE6E
:06129E0060047F088002DD
:0212A4007F04C5
:0912A60090F1D8EFF01214C5021A
:0212AF00142BFE
:0E12B10090F1C7E0FEA3E0FFBE0005BF000203
:0212BF008008A5
:0812C100BE0121BF001E8011D7
:0E12C90090F1D8E0FF24F7501690F1D8740889
:0312D700F0800E96
:0B12DA0090F1D87410F0120B93800309
:0312E50002142BC5
:0612E8001214C502142BD4
:0C12EE0090F1D8E0FFBF10047F018002E7
:0212FA007F0073
:0812FC0090F1CFEFF0781A74B5
:0A130400CFF20874F1F2900001121C
:05130E00148302142B02
:0813130090F1D8E0FFBF1000CB
:05131B00500302142B39
:0B13200090F1C9E0FEA3E0FF7CE97D36
:0C132B00168C828D83A3A3A3A3E493FD82
:0C1337007C00C3EE9DEF9C400302142BD1
:07134300781A74CFF2087460
:09134A00F1F2900001121483027B
:02135300142B59
:0E13550090F1C5E0541FFE7F00BE0005BF00F2
:03136300028014F1
:08136600BE0105BF0002802E4C
:09136E00BE0206BF00030213E7F2
:0313770002141548
:09137A00120B8250047F01800275
:021383007F00E9
:0813850090F1CFEFF0781A742B
:0A138D00CFF20874F1F29000021292
:05139700148302142B79
:08139C0090F1D8E0FFBF100042
:0E13A400500E90F1C9E0FEA3E0FF4E60030280
:0213B200142BFA
:0B13B40090F1C9E0FEA3E0FF7CE97DA2
:0C13BF00168C828D83A3A3A3A3E493FDEE
:0B13CB007C00C3EE9DEF9C40028055AB
:0713D600781A74CFF20874CD
:0A13DD00F1F2900002121483804424
:0E13E70090F1C7E0FEA3E0FFEE540F6002801D
:0113F50002F5
:0213F600803342
:0813F80090F1D8E0FFBF1000E6
:0414000050028027EF
:07140400781A74CFF208749E
:0A140B00F1F2900002121483801623
:02141500801441
:051417001214C5800F56
:07141C00781A74CFF2087486
:08142300F1F2900002121483A3
:01142B00229E
:03142C00A20922F0
:0C142F00AF8CA2BD920BC2BD438C10AE6E
:06143B008C5306FE8E8CAE
:0E144100758900C2C5D2BDAEBE74FC5E44010A
:0E144F00FE8EBE000000E5BE54036007D29082
:05145D00438701C2906D
:09146200C2BDE58930E702C209B0
:0C146B00300909C007120B82D00750CADC
:0C147700E5BE30E6FB8F8CA20B92BD227C
:0E148300AE82AF8390F1D97402F090F1CDEEFD
:0C149100F0A3EFF0781AE2FE08E2FF780A
:07149D0012EEF208EFF2224B
:0E14A400AE82AF8390F1D97401F090F1CDEEDD
:0C14B200F0A3EFF0781CE2FE08E2FF78E7
:0714BE0012EEF208EFF2222A
:0E14C50090F1D97401F090F1CDE4F0A3F02283
:0614D30090F1D9E4F022C3
:0C14D900E58290DE0EF0781EE2FE7F003F
:0E14E50074072EFEE43FFFC423CEC423541F21
:0C14F3006ECE541FCE6ECE30E40244E0FA
:0C14FF0090DE10EEF090DE127401F0227E
:0C150B00E58290DE0EF0781FE2FE7F000B
:0E15170074072EFEE43FFFC423CEC423541FEE
:0C1525006ECE541FCE6ECE30E40244E0C7
:0C15310090DE13EEF090DE157401F02245
:011772000076
:011773000075
:0D153D0090DF2E74FEF090DF097464F090D2
:0E154A00DF0A7425F090DF0BE4F090DF0F74E1
:0E15580043F090DF107487F090DF07740AF004
:0E15660090DF08E4F090DF0C741DF090DF0DB4
:0E15740074DEF090DF0E7473F090DF1A74B620
:0E158200F090DF1B7410F090DF15741DF090D8
:0E159000DF16741CF090DF1774C7F090DF18A0
:0E159E00E4F090DF1974B2F090DF1C74EAF0F4
:0E15AC0090DF1D740AF090DF1EE4F090DF1F48
:0E15BA007411F090DF237488F090DF247431F8
:0E15C800F090DF257409F090DF037404F090BA
:0615D600DF047445F02261
:0A15DC0090DF39E023540124FF22C0
:0B15E60090DF39E0FF747F5FF5822288
:0E15F10090DF3AE0FFC2D575F002EF30E7045C
:0415FF00B2D5F40469
:061603008430D502F4045E
:0516090024B9F5822266
:02048B00E47318
:02052B00C20C00
:05160E00100A02801526
:0A16130090DE0CE0FF7820F2200CBE
:0A161D000AD20C90DE0CE0FF7821E9
:01162700F2D0
:0C16280012142C400790F1D8E0FF70096C
:09163400AEFF5306EF8EFF805E4D
:0C163D00BF1040300C3890DE0CE0FF7E47
:0C164900007821E2FC7D00EFC39CFFEE66
:0B1655009DFEEF30E60543FF1080070C
:07166000AFFF5307EF8FFFFE
:0C16670090DE0CE0FF7820D3E29FF4FF3F
:08167300249F5024C20C8020CA
:05167B0043FF10801B7D
:0E168000120E70AD83AEF0FFED035401FC605E
:06168E000543FF10800778
:07169400AFFF5307EF8FFFCA
:01169B00222C
:03048D0075812254
:0A0490001216B0E582600302048634
:0C169C009003E0E493FF9003E1E49378F6
:0816A80005F28F82120A8F2265
:0416B000758200221D
:0B16B400000000000216BF0000000054
:0416BF000000000027
:0816C300E5826003D582EA22F2
:00000001FF
